:100000000C946B000C947D000C947D000C947D008E
:100010000C947D000C947D000C947D000C947D006C
:100020000C947D000C947D000C947D000C947D005C
:100030000C947D000C947D000C947D000C947D004C
:100040000C947D000C947D000C947D000C947D003C
:100050000C947D0007634236B79BD8A71A396856BF
:1000600018AEBAAB558C1D3CB7CC5763BD6DEDFDDA
:10007000753EF6177231BF000000803F0800000097
:10008000BE922449123EABAAAA2ABECDCCCC4C3E8D
:1000900000000080BEABAAAAAA3E00000000BF007C
:1000A0000000803F0000000000084178D3BB438778
:1000B000D1133D190E3CC3BD4282AD2B3E68EC828C
:1000C00076BED98FE1A93E4C80EFFFBE01C4FF7F11
:1000D0003F000000000011241FBECFE5D8E0DEBFC6
:1000E000CDBF20E0A0E6B0E001C01D92AF37B2075F
:1000F000E1F70E9472010C9491050C9400009BB3EF
:100100009F70282F207F922B9BBB9BB39D7F9BBB17
:100110009BB39B7F9BBB9BB398609BBB35E03A95A1
:10012000F1F700009BB3977F9BBBEFE1F3E03197C2
:10013000F1F700C000002BB3F0E18F9FC001112444
:10014000922F9F70892B8BBB8BB388608BBB35E064
:100150003A95F1F700008BB3877F8BBB8FE39FE16C
:100160000197F1F700C0000008958FEF8ABB2FEFD1
:1001700089EF90E0215080409040E1F700C00000FE
:1001800083E30E947F0082E30E947F0088E20E9456
:100190007F008EE00E947F0086E00E947F0081E069
:1001A0000E947F0008959BB39F70282F207F922B81
:1001B0009BBB9BB392609BBB9BB39B7F9BBB9BB347
:1001C00098609BBB35E03A95F1F700009BB3977FB1
:1001D0009BBBEFE1F3E03197F1F700C000002BB3D8
:1001E000F0E18F9FC0011124922F9F70892B8BBB50
:1001F0008BB388608BBB35E03A95F1F700008BB389
:10020000877F8BBB8FE39FE10197F1F700C0000070
:100210000895CF93C82F0E94B5008C2F0E94D30061
:100220002FEF83ED90E3215080409040E1F700C034
:100230000000CF910895CF92DF92EF92FF920F933B
:100240001F93CF93DF93C7E1D0E000E010E028C018
:10025000FE01E959FF4F8081803309F567E170E0C5
:100260006C1B7D0B072E000C880B990B0E94620201
:100270009B01AC0160E070E080E090E40E945B03D1
:100280006B017C01B801110F880B990B0E9462026F
:10029000A70196010E94BE010E942A028B012197AC
:1002A000DD23B4F6B801110F880B990B0E9462028E
:1002B00020E030E040E85FE30E94BE0124EB32EA38
:1002C00048EE57E30E94EE020E94AB030E942A020E
:1002D000862FDF91CF911F910F91FF90EF90DF90CC
:1002E000CF90089581B38D7F81BB81B3816081BB45
:1002F00082B3826082BB80E090E022C022B32160A2
:1003000022BB2AE02A95F1F700C022B32E7F22BB40
:100310002AE02A95F1F700C0819B04C021E32093D5
:10032000600003C020E320936000FC01E959FF4F07
:1003300020916000208325E02A95F1F700000196C6
:1003400089319105DCF282B3816082BB8AE08A95B3
:10035000F1F700C082B38E7F82BB0E941B018093A5
:1003600066000E9409019FEF23ED80E39150204039
:100370008040E1F700C00000BECF5058BB27AA273D
:100380000E94D5010C94B4020E94A60238F00E948B
:10039000AD0220F039F49F3F19F426F40C94A30227
:1003A0000EF4E095E7FB0C949D02E92F0E94C50234
:1003B00058F3BA17620773078407950720F079F49A
:1003C000A6F50C94E7020EF4E0950B2EBA2FA02DA3
:1003D0000B01B90190010C01CA01A0011124FF27F2
:1003E000591B99F0593F50F4503E68F11A16F040ED
:1003F000A22F232F342F4427585FF3CF46953795EC
:100400002795A795F0405395C9F77EF41F16BA0BB0
:10041000620B730B840BBAF09150A1F0FF0FBB1F5E
:10042000661F771F881FC2F70EC0BA0F621F731FA7
:10043000841F48F4879577956795B795F7959E3F04
:1004400008F0B0CF9395880F08F09927EE0F979595
:10045000879508950E9431026894B1110C94E802C6
:1004600008950E94CD0288F09F5798F0B92F9927E0
:10047000B751B0F0E1F0660F771F881F991F1AF08F
:10048000BA95C9F714C0B13091F00E94E702B1E00B
:1004900008950C94E702672F782F8827B85F39F00A
:1004A000B93FCCF3869577956795B395D9F73EF428
:1004B00090958095709561957F4F8F4F9F4F0895D0
:1004C000E89409C097FB3EF49095809570956195EE
:1004D0007F4F8F4F9F4F9923A9F0F92F96E9BB27A4
:1004E0009395F695879577956795B795F111F8CF20
:1004F000FAF4BB0F11F460FF1BC06F5F7F4F8F4F8B
:100500009F4F16C0882311F096E911C0772321F080
:100510009EE8872F762F05C0662371F096E8862F18
:1005200070E060E02AF09A95660F771F881FDAF76F
:10053000880F9695879597F9089597F99F6780E8B2
:1005400070E060E008959FEF80EC089500240A9425
:100550001616170618060906089500240A9412169E
:100560001306140605060895092E0394000C11F4D1
:10057000882352F0BB0F40F4BF2B11F460FF04C07E
:100580006F5F7F4F8F4F9F4F089557FD9058440FD7
:10059000551F59F05F3F71F04795880F97FB991FE2
:1005A00061F09F3F79F0879508951216130614069F
:1005B000551FF2CF4695F1DF08C01616170618062C
:1005C000991FF1CF86957105610508940895E89407
:1005D000BB2766277727CB0197F908950E9401036F
:1005E0000C94B4020E94A60238F00E94AD0220F0E2
:1005F000952311F00C949D020C94A30211240C94E9
:10060000E8020E94C50270F3959FC1F3950F50E078
:10061000551F629FF001729FBB27F00DB11D639FB4
:10062000AA27F00DB11DAA1F649F6627B00DA11D5A
:10063000661F829F2227B00DA11D621F739FB00D00
:10064000A11D621F839FA00D611D221F749F332770
:10065000A00D611D231F849F600D211D822F762F09
:100660006A2F11249F5750409AF0F1F088234AF0E6
:10067000EE0FFF1FBB1F661F771F881F9150504052
:10068000A9F79E3F510580F00C949D020C94E8025E
:100690005F3FE4F3983ED4F3869577956795B795D9
:1006A000F795E7959F5FC1F7FE2B880F911D9695F3
:1006B000879597F90895FA01EE0FFF1F30962105EF
:1006C0003105A1F16115710561F48038BFE39B0725
:1006D00049F168949038810561F08038BFEF9B073D
:1006E00041F099234AF5FF3FE1053105210519F154
:1006F000E8940894E795D901AA2329F4AB2FBE2FDB
:10070000F85FD0F310C0FF5F70F4A695E0F7F739FB
:1007100050F019F0FF3A38F49F779F930DD00F9067
:1007200007FC9058089546F00C94A30260E070E036
:1007300080E89FE308954FE79F775F934F933F9340
:100740002F930E94A3042F913F914F915F910E949C
:10075000EE020C94D7030E94CD02E8F09E37E8F039
:100760009639B8F49E3848F4672F782F8827985F19
:10077000F9CF86957795679593959539D0F3B62FF0
:10078000B1706B0F711D811D20F48795779567956A
:1007900093950C9409040C9424040C94E80229F415
:1007A00016F00C949D020C94E7020C94A3020E9494
:1007B000CD02A8F39638A0F707F80F92E8942BE340
:1007C0003AEA48EB5FE70E9404030F920F920F9200
:1007D0004DB75EB70F920E94EB04E4E5F0E00E9493
:1007E00032044F915F91EF91FF91E595EE1FFF1F4E
:1007F00049F0FE57E0684427EE0F441FFA95E1F7F1
:100800004195550B0E9465040F9007FE0C94590406
:100810000895882371F4772321F09850872B762F41
:1008200007C0662311F499270DC09051862B70E004
:1008300060E02AF09A95660F771F881FDAF7880F15
:100840009695879597F908959F3F31F0915020F440
:10085000879577956795B795880F911D969587959C
:1008600097F90895DF93CF931F930F93FF92EF9221
:10087000DF927B018C01689406C0DA2EEF010E94A2
:100880000103FE01E894A59125913591459155917B
:10089000A6F3EF010E94D501FE019701A801DA94A9
:1008A00069F7DF90EF90FF900F911F91CF91DF914B
:1008B00008959B01AC0160E070E080E89FE30C9438
:1008C0001F050C949D020C9424040E94CD02D8F3C1
:1008D0009923C9F3940F511DA3F39150504094F004
:1008E00059F0882332F0660F771F881F91505040CF
:1008F000C1F79E3F51052CF7880F911D969587955E
:1009000097F908955F3FACF0983E9CF0BB27869521
:1009100077956795B79508F4B1609395C1F7BB0FCC
:1009200058F711F460FFE8CF6F5F7F4F8F4F9F4FF5
:10093000E3CF0C94E80216F00C9424040C94A30268
:1009400068940C949D020E94CD02A8F39923C1F3F0
:10095000AEF3DF93CF931F930F93FF92C92FDD2741
:1009600088232AF02197660F771F881FDAF720E087
:1009700030E040E85FEB9FE3883920F0803E38F0BC
:1009800021968F770E94BE01ECE7F0E004C00E9440
:10099000BE01E9EAF0E00E9432048B01BE01EC01E5
:1009A000FB2E6F5771097595771F880B990B0E9465
:1009B000620228E132E741E35FE30E940103AF2DC9
:1009C0009801AE01FF900F911F91CF91DF910E948E
:1009D000D5010C94B402FA01DC01AA0FBB1F9B01E4
:1009E000AC01BF5728F4222733274427507820C072
:1009F000B75190F4AB2F0024469537952795011CED
:100A0000A395D2F3002071F0220F331F441FB3953A
:100A1000DAF30ED00C94BD0161307105A0E88A07AD
:100A2000B94630F49B01AC01662777278827907878
:100A3000309621F0208331834283538308950E94AE
:100A400033050C94B4020E94AD0258F00E94A60235
:100A500040F029F45F3F29F00C949D0251110C9451
:100A6000E8020C94A3020E94C50268F39923B1F333
:100A7000552391F3951B550BBB27AA2762177307C4
:100A8000840738F09F5F5F4F220F331F441FAA1F58
:100A9000A9F335D00E2E3AF0E0E832D09150504014
:100AA000E695001CCAF72BD0FE2F29D0660F771FC2
:100AB000881FBB1F261737074807AB07B0E809F0A8
:100AC000BB0B802DBF01FF2793585F4F3AF09E3F2D
:100AD000510578F00C949D020C94E8025F3FE4F31A
:100AE000983ED4F3869577956795B795F7959F5F70
:100AF000C9F7880F911D9695879597F90895E1E0BC
:100B0000660F771F881FBB1F621773078407BA071A
:100B100020F0621B730B840BBA0BEE1F88F7E09575
:060B20000895F894FFCFD8
:00000001FF
